{
  "_format": "hh-sol-artifact-1",
  "contractName": "Bank",
  "sourceName": "contracts/Bank.sol",
  "abi": [
    {
      "inputs": [
        {
          "internalType": "address",
          "name": "",
          "type": "address"
        }
      ],
      "name": "accounts",
      "outputs": [
        {
          "internalType": "uint256",
          "name": "",
          "type": "uint256"
        }
      ],
      "stateMutability": "view",
      "type": "function"
    },
    {
      "inputs": [],
      "name": "deposit",
      "outputs": [],
      "stateMutability": "payable",
      "type": "function"
    },
    {
      "inputs": [],
      "name": "totalAmount",
      "outputs": [
        {
          "internalType": "uint256",
          "name": "",
          "type": "uint256"
        }
      ],
      "stateMutability": "view",
      "type": "function"
    },
    {
      "inputs": [
        {
          "internalType": "uint256",
          "name": "_amount",
          "type": "uint256"
        },
        {
          "internalType": "address",
          "name": "_tokenContract",
          "type": "address"
        }
      ],
      "name": "withdraw",
      "outputs": [],
      "stateMutability": "nonpayable",
      "type": "function"
    }
  ],
  "bytecode": "0x608060405234801561001057600080fd5b506107a0806100206000396000f3fe60806040526004361061003e5760003560e01c8062f714ce146100435780631a39d8ef1461006c5780635e5c06e214610097578063d0e30db0146100d4575b600080fd5b34801561004f57600080fd5b5061006a600480360381019061006591906103ed565b6100de565b005b34801561007857600080fd5b506100816102e0565b60405161008e9190610580565b60405180910390f35b3480156100a357600080fd5b506100be60048036038101906100b991906103c4565b6102e8565b6040516100cb9190610580565b60405180910390f35b6100dc610300565b005b6000803373ffffffffffffffffffffffffffffffffffffffff1673ffffffffffffffffffffffffffffffffffffffff1681526020019081526020016000205482111561015f576040517f08c379a000000000000000000000000000000000000000000000000000000000815260040161015690610520565b60405180910390fd5b816000803373ffffffffffffffffffffffffffffffffffffffff1673ffffffffffffffffffffffffffffffffffffffff16815260200190815260200160002060008282546101ad919061060d565b9250508190555060003373ffffffffffffffffffffffffffffffffffffffff16836040516101da906104e2565b60006040518083038185875af1925050503d8060008114610217576040519150601f19603f3d011682016040523d82523d6000602084013e61021c565b606091505b5050905080610260576040517f08c379a000000000000000000000000000000000000000000000000000000000815260040161025790610540565b60405180910390fd5b60008290508073ffffffffffffffffffffffffffffffffffffffff166340c10f1933670de0b6b3a76400006040518363ffffffff1660e01b81526004016102a89291906104f7565b600060405180830381600087803b1580156102c257600080fd5b505af11580156102d6573d6000803e3d6000fd5b5050505050505050565b600047905090565b60006020528060005260406000206000915090505481565b60003411610343576040517f08c379a000000000000000000000000000000000000000000000000000000000815260040161033a90610560565b60405180910390fd5b346000803373ffffffffffffffffffffffffffffffffffffffff1673ffffffffffffffffffffffffffffffffffffffff168152602001908152602001600020600082825461039191906105b7565b92505081905550565b6000813590506103a98161073c565b92915050565b6000813590506103be81610753565b92915050565b6000602082840312156103d657600080fd5b60006103e48482850161039a565b91505092915050565b6000806040838503121561040057600080fd5b600061040e858286016103af565b925050602061041f8582860161039a565b9150509250929050565b61043281610641565b82525050565b6104418161067d565b82525050565b60006104546014836105a6565b915061045f826106be565b602082019050919050565b6000610477600b836105a6565b9150610482826106e7565b602082019050919050565b600061049a60008361059b565b91506104a582610710565b600082019050919050565b60006104bd601e836105a6565b91506104c882610713565b602082019050919050565b6104dc81610673565b82525050565b60006104ed8261048d565b9150819050919050565b600060408201905061050c6000830185610429565b6105196020830184610438565b9392505050565b6000602082019050818103600083015261053981610447565b9050919050565b600060208201905081810360008301526105598161046a565b9050919050565b60006020820190508181036000830152610579816104b0565b9050919050565b600060208201905061059560008301846104d3565b92915050565b600081905092915050565b600082825260208201905092915050565b60006105c282610673565b91506105cd83610673565b9250827fffffffffffffffffffffffffffffffffffffffffffffffffffffffffffffffff038211156106025761060161068f565b5b828201905092915050565b600061061882610673565b915061062383610673565b9250828210156106365761063561068f565b5b828203905092915050565b600061064c82610653565b9050919050565b600073ffffffffffffffffffffffffffffffffffffffff82169050919050565b6000819050919050565b600061068882610673565b9050919050565b7f4e487b7100000000000000000000000000000000000000000000000000000000600052601160045260246000fd5b7f496e73756666696369656e742062616c616e6365000000000000000000000000600082015250565b7f63616c6c206661696c6564000000000000000000000000000000000000000000600082015250565b50565b7f4d757374206465706f736974206d6f7265207468616e20302065746865720000600082015250565b61074581610641565b811461075057600080fd5b50565b61075c81610673565b811461076757600080fd5b5056fea26469706673582212204e2cafc05f3e54a78ae2bd2fbda4e245cf4bd536f98c19a9cb850eb0ec73303164736f6c63430008040033",
  "linkReferences": {},
  "deployedLinkReferences": {}
}