{
  "_format": "hh-sol-artifact-1",
  "contractName": "Bank",
  "sourceName": "contracts/Bank.sol",
  "abi": [
    {
      "inputs": [
        {
          "internalType": "address",
          "name": "",
          "type": "address"
        }
      ],
      "name": "accounts",
      "outputs": [
        {
          "internalType": "uint256",
          "name": "",
          "type": "uint256"
        }
      ],
      "stateMutability": "view",
      "type": "function"
    },
    {
      "inputs": [],
      "name": "deposit",
      "outputs": [],
      "stateMutability": "payable",
      "type": "function"
    },
    {
      "inputs": [],
      "name": "totalAmount",
      "outputs": [
        {
          "internalType": "uint256",
          "name": "",
          "type": "uint256"
        }
      ],
      "stateMutability": "view",
      "type": "function"
    },
    {
      "inputs": [
        {
          "internalType": "uint256",
          "name": "_amount",
          "type": "uint256"
        },
        {
          "internalType": "address",
          "name": "_tokenContract",
          "type": "address"
        }
      ],
      "name": "withdraw",
      "outputs": [],
      "stateMutability": "nonpayable",
      "type": "function"
    }
  ],
  "bytecode": "0x608060405234801561001057600080fd5b50610641806100206000396000f3fe60806040526004361061003e5760003560e01c8062f714ce146100435780631a39d8ef1461006c5780635e5c06e214610097578063d0e30db0146100d4575b600080fd5b34801561004f57600080fd5b5061006a60048036038101906100659190610340565b6100de565b005b34801561007857600080fd5b50610081610233565b60405161008e9190610458565b60405180910390f35b3480156100a357600080fd5b506100be60048036038101906100b99190610317565b61023b565b6040516100cb9190610458565b60405180910390f35b6100dc610253565b005b816000803373ffffffffffffffffffffffffffffffffffffffff1673ffffffffffffffffffffffffffffffffffffffff16815260200190815260200160002054101561015f576040517f08c379a000000000000000000000000000000000000000000000000000000000815260040161015690610418565b60405180910390fd5b816000808373ffffffffffffffffffffffffffffffffffffffff1673ffffffffffffffffffffffffffffffffffffffff16815260200190815260200160002060008282546101ad91906104da565b9250508190555060008190508073ffffffffffffffffffffffffffffffffffffffff166340c10f1933670de0b6b3a76400006040518363ffffffff1660e01b81526004016101fc9291906103ef565b600060405180830381600087803b15801561021657600080fd5b505af115801561022a573d6000803e3d6000fd5b50505050505050565b600047905090565b60006020528060005260406000206000915090505481565b60003411610296576040517f08c379a000000000000000000000000000000000000000000000000000000000815260040161028d90610438565b60405180910390fd5b346000803373ffffffffffffffffffffffffffffffffffffffff1673ffffffffffffffffffffffffffffffffffffffff16815260200190815260200160002060008282546102e49190610484565b92505081905550565b6000813590506102fc816105dd565b92915050565b600081359050610311816105f4565b92915050565b60006020828403121561032957600080fd5b6000610337848285016102ed565b91505092915050565b6000806040838503121561035357600080fd5b600061036185828601610302565b9250506020610372858286016102ed565b9150509250929050565b6103858161050e565b82525050565b6103948161054a565b82525050565b60006103a7601483610473565b91506103b28261058b565b602082019050919050565b60006103ca601e83610473565b91506103d5826105b4565b602082019050919050565b6103e981610540565b82525050565b6000604082019050610404600083018561037c565b610411602083018461038b565b9392505050565b600060208201905081810360008301526104318161039a565b9050919050565b60006020820190508181036000830152610451816103bd565b9050919050565b600060208201905061046d60008301846103e0565b92915050565b600082825260208201905092915050565b600061048f82610540565b915061049a83610540565b9250827fffffffffffffffffffffffffffffffffffffffffffffffffffffffffffffffff038211156104cf576104ce61055c565b5b828201905092915050565b60006104e582610540565b91506104f083610540565b9250828210156105035761050261055c565b5b828203905092915050565b600061051982610520565b9050919050565b600073ffffffffffffffffffffffffffffffffffffffff82169050919050565b6000819050919050565b600061055582610540565b9050919050565b7f4e487b7100000000000000000000000000000000000000000000000000000000600052601160045260246000fd5b7f496e73756666696369656e742062616c616e6365000000000000000000000000600082015250565b7f4d757374206465706f736974206d6f7265207468616e20302065746865720000600082015250565b6105e68161050e565b81146105f157600080fd5b50565b6105fd81610540565b811461060857600080fd5b5056fea26469706673582212203e70bc9b24d6f525eeb6d98412411119cbb8ba6e38c666b4a23dc14e97f5a1e964736f6c63430008040033",
  "linkReferences": {},
  "deployedLinkReferences": {}
}